{
  "_format": "hh-sol-artifact-1",
  "contractName": "LockedWallet",
  "sourceName": "contracts/LockedWallet.sol",
  "abi": [
    {
      "inputs": [],
      "stateMutability": "nonpayable",
      "type": "constructor"
    },
    {
      "anonymous": false,
      "inputs": [
        {
          "indexed": true,
          "internalType": "address",
          "name": "from",
          "type": "address"
        },
        {
          "indexed": false,
          "internalType": "uint256",
          "name": "amount",
          "type": "uint256"
        },
        {
          "indexed": false,
          "internalType": "uint256",
          "name": "unlockTime",
          "type": "uint256"
        }
      ],
      "name": "NewDeposit",
      "type": "event"
    },
    {
      "anonymous": false,
      "inputs": [
        {
          "indexed": true,
          "internalType": "address",
          "name": "to",
          "type": "address"
        },
        {
          "indexed": false,
          "internalType": "uint256",
          "name": "amount",
          "type": "uint256"
        },
        {
          "indexed": false,
          "internalType": "uint256",
          "name": "reward",
          "type": "uint256"
        }
      ],
      "name": "Withdrawal",
      "type": "event"
    },
    {
      "inputs": [],
      "name": "REWARD_RATE",
      "outputs": [
        {
          "internalType": "uint256",
          "name": "",
          "type": "uint256"
        }
      ],
      "stateMutability": "view",
      "type": "function"
    },
    {
      "inputs": [
        {
          "internalType": "uint256",
          "name": "_index",
          "type": "uint256"
        }
      ],
      "name": "calculateReward",
      "outputs": [
        {
          "internalType": "uint256",
          "name": "",
          "type": "uint256"
        }
      ],
      "stateMutability": "view",
      "type": "function"
    },
    {
      "inputs": [
        {
          "internalType": "uint256",
          "name": "_unlockTime",
          "type": "uint256"
        }
      ],
      "name": "deposit",
      "outputs": [],
      "stateMutability": "payable",
      "type": "function"
    },
    {
      "inputs": [
        {
          "internalType": "uint256",
          "name": "",
          "type": "uint256"
        }
      ],
      "name": "deposits",
      "outputs": [
        {
          "internalType": "uint256",
          "name": "amount",
          "type": "uint256"
        },
        {
          "internalType": "uint256",
          "name": "unlockTime",
          "type": "uint256"
        },
        {
          "internalType": "uint256",
          "name": "depositTime",
          "type": "uint256"
        }
      ],
      "stateMutability": "view",
      "type": "function"
    },
    {
      "inputs": [],
      "name": "getDepositsCount",
      "outputs": [
        {
          "internalType": "uint256",
          "name": "",
          "type": "uint256"
        }
      ],
      "stateMutability": "view",
      "type": "function"
    },
    {
      "inputs": [],
      "name": "getTotalBalance",
      "outputs": [
        {
          "internalType": "uint256",
          "name": "",
          "type": "uint256"
        }
      ],
      "stateMutability": "view",
      "type": "function"
    },
    {
      "inputs": [],
      "name": "owner",
      "outputs": [
        {
          "internalType": "address",
          "name": "",
          "type": "address"
        }
      ],
      "stateMutability": "view",
      "type": "function"
    },
    {
      "inputs": [
        {
          "internalType": "uint256",
          "name": "_index",
          "type": "uint256"
        }
      ],
      "name": "withdraw",
      "outputs": [],
      "stateMutability": "nonpayable",
      "type": "function"
    }
  ],
  "bytecode": "0x608060405234801561001057600080fd5b50336000806101000a81548173ffffffffffffffffffffffffffffffffffffffff021916908373ffffffffffffffffffffffffffffffffffffffff160217905550610e24806100606000396000f3fe60806040526004361061007b5760003560e01c80638da5cb5b1161004e5780638da5cb5b1461012a578063b02c43d014610155578063b6b55f2514610194578063d2d7231f146101b05761007b565b806312b58349146100805780632e1a7d4d146100ab5780634c5822e4146100d45780635997bb37146100ff575b600080fd5b34801561008c57600080fd5b506100956101ed565b6040516100a291906107f7565b60405180910390f35b3480156100b757600080fd5b506100d260048036038101906100cd9190610843565b61025f565b005b3480156100e057600080fd5b506100e96105c1565b6040516100f691906107f7565b60405180910390f35b34801561010b57600080fd5b506101146105ce565b60405161012191906107f7565b60405180910390f35b34801561013657600080fd5b5061013f6105d3565b60405161014c91906108b1565b60405180910390f35b34801561016157600080fd5b5061017c60048036038101906101779190610843565b6105f7565b60405161018b939291906108cc565b60405180910390f35b6101ae60048036038101906101a99190610843565b610631565b005b3480156101bc57600080fd5b506101d760048036038101906101d29190610843565b61076f565b6040516101e491906107f7565b60405180910390f35b6000806000905060005b6001805490508110156102575761020d8161076f565b6001828154811061022157610220610903565b5b90600052602060002090600302016000015461023d9190610961565b826102489190610961565b915080806001019150506101f7565b508091505090565b60008054906101000a900473ffffffffffffffffffffffffffffffffffffffff1673ffffffffffffffffffffffffffffffffffffffff163373ffffffffffffffffffffffffffffffffffffffff16146102ed576040517f08c379a00000000000000000000000000000000000000000000000000000000081526004016102e4906109f2565b60405180910390fd5b6001805490508110610334576040517f08c379a000000000000000000000000000000000000000000000000000000000815260040161032b90610a5e565b60405180910390fd5b60006001828154811061034a57610349610903565b5b9060005260206000209060030201905080600101544210156103a1576040517f08c379a000000000000000000000000000000000000000000000000000000000815260040161039890610aca565b60405180910390fd5b60006103ac8361076f565b905060008183600001546103c09190610961565b905060018080805490506103d49190610aea565b815481106103e5576103e4610903565b5b90600052602060002090600302016001858154811061040757610406610903565b5b9060005260206000209060030201600082015481600001556001820154816001015560028201548160020155905050600180548061044857610447610b1e565b5b6001900381819060005260206000209060030201600080820160009055600182016000905560028201600090555050905560008060009054906101000a900473ffffffffffffffffffffffffffffffffffffffff1673ffffffffffffffffffffffffffffffffffffffff16826040516104c090610b7e565b60006040518083038185875af1925050503d80600081146104fd576040519150601f19603f3d011682016040523d82523d6000602084013e610502565b606091505b5050905080610546576040517f08c379a000000000000000000000000000000000000000000000000000000000815260040161053d90610bdf565b60405180910390fd5b60008054906101000a900473ffffffffffffffffffffffffffffffffffffffff1673ffffffffffffffffffffffffffffffffffffffff167fdf273cb619d95419a9cd0ec88123a0538c85064229baa6363788f743fff90deb8560000154856040516105b2929190610bff565b60405180910390a25050505050565b6000600180549050905090565b600581565b60008054906101000a900473ffffffffffffffffffffffffffffffffffffffff1681565b6001818154811061060757600080fd5b90600052602060002090600302016000915090508060000154908060010154908060020154905083565b60003411610674576040517f08c379a000000000000000000000000000000000000000000000000000000000815260040161066b90610c9a565b60405180910390fd5b4281116106b6576040517f08c379a00000000000000000000000000000000000000000000000000000000081526004016106ad90610d2c565b60405180910390fd5b6001604051806060016040528034815260200183815260200142815250908060018154018082558091505060019003906000526020600020906003020160009091909190915060008201518160000155602082015181600101556040820151816002015550503373ffffffffffffffffffffffffffffffffffffffff167fa91e0c3165215fe453f5bf3de083d5fd6c4e62c491849155a042a647588c53a03483604051610764929190610bff565b60405180910390a250565b6000806001838154811061078657610785610903565b5b9060005260206000209060030201905060008160020154426107a89190610aea565b905063bbf81e0081600584600001546107c19190610d4c565b6107cb9190610d4c565b6107d59190610dbd565b92505050919050565b6000819050919050565b6107f1816107de565b82525050565b600060208201905061080c60008301846107e8565b92915050565b600080fd5b610820816107de565b811461082b57600080fd5b50565b60008135905061083d81610817565b92915050565b60006020828403121561085957610858610812565b5b60006108678482850161082e565b91505092915050565b600073ffffffffffffffffffffffffffffffffffffffff82169050919050565b600061089b82610870565b9050919050565b6108ab81610890565b82525050565b60006020820190506108c660008301846108a2565b92915050565b60006060820190506108e160008301866107e8565b6108ee60208301856107e8565b6108fb60408301846107e8565b949350505050565b7f4e487b7100000000000000000000000000000000000000000000000000000000600052603260045260246000fd5b7f4e487b7100000000000000000000000000000000000000000000000000000000600052601160045260246000fd5b600061096c826107de565b9150610977836107de565b925082820190508082111561098f5761098e610932565b5b92915050565b600082825260208201905092915050565b7f4e6f7420746865206f776e657200000000000000000000000000000000000000600082015250565b60006109dc600d83610995565b91506109e7826109a6565b602082019050919050565b60006020820190508181036000830152610a0b816109cf565b9050919050565b7f496e76616c6964206465706f73697420696e6465780000000000000000000000600082015250565b6000610a48601583610995565b9150610a5382610a12565b602082019050919050565b60006020820190508181036000830152610a7781610a3b565b9050919050565b7f46756e647320617265207374696c6c206c6f636b656400000000000000000000600082015250565b6000610ab4601683610995565b9150610abf82610a7e565b602082019050919050565b60006020820190508181036000830152610ae381610aa7565b9050919050565b6000610af5826107de565b9150610b00836107de565b9250828203905081811115610b1857610b17610932565b5b92915050565b7f4e487b7100000000000000000000000000000000000000000000000000000000600052603160045260246000fd5b600081905092915050565b50565b6000610b68600083610b4d565b9150610b7382610b58565b600082019050919050565b6000610b8982610b5b565b9150819050919050565b7f5472616e73666572206661696c65640000000000000000000000000000000000600082015250565b6000610bc9600f83610995565b9150610bd482610b93565b602082019050919050565b60006020820190508181036000830152610bf881610bbc565b9050919050565b6000604082019050610c1460008301856107e8565b610c2160208301846107e8565b9392505050565b7f4465706f73697420616d6f756e74206d7573742062652067726561746572207460008201527f68616e2030000000000000000000000000000000000000000000000000000000602082015250565b6000610c84602583610995565b9150610c8f82610c28565b604082019050919050565b60006020820190508181036000830152610cb381610c77565b9050919050565b7f556e6c6f636b2074696d65206d75737420626520696e2074686520667574757260008201527f6500000000000000000000000000000000000000000000000000000000000000602082015250565b6000610d16602183610995565b9150610d2182610cba565b604082019050919050565b60006020820190508181036000830152610d4581610d09565b9050919050565b6000610d57826107de565b9150610d62836107de565b9250828202610d70816107de565b91508282048414831517610d8757610d86610932565b5b5092915050565b7f4e487b7100000000000000000000000000000000000000000000000000000000600052601260045260246000fd5b6000610dc8826107de565b9150610dd3836107de565b925082610de357610de2610d8e565b5b82820490509291505056fea26469706673582212205c265a891be030beb941cea45ae8c2ac8cffb9e3ef10f9bf43d5d2b19b01db3f64736f6c63430008180033",
  "linkReferences": {},
  "deployedLinkReferences": {}
}